{
  "transactions": [
    {
      "hash": "0x7712dd0e27f2af1fefe3deb4e8b4660a18c32d947eb7c7f9ea874765a70d7cf1",
      "transactionType": "CREATE",
      "contractName": null,
      "contractAddress": "0x0b98b26cdd390b1bf6a2e3855eb00f3f9a075e0f",
      "function": null,
      "arguments": null,
      "transaction": {
        "from": "0xb4ec41c93cf2f573f82d8f023b01637eb5db4c64",
        "gas": "0x13f7d",
        "value": "0x0",
        "input": "0x3d602d80600a3d3981f3363d3d373d3d3d363d73d9ea9a73010690f4873af9a3676881f5f5e95f545af43d82803e903d91602b57fd5bf3",
        "nonce": "0x3b",
        "chainId": "0x2105"
      },
      "additionalContracts": [],
      "isFixedGasLimit": false
    },
    {
      "hash": "0x05eccd3aeb40f1ed232860a4c280229e82e1247eb1124790fbc13eb6884895ba",
      "transactionType": "CALL",
      "contractName": null,
      "contractAddress": "0x0b98b26cdd390b1bf6a2e3855eb00f3f9a075e0f",
      "function": "initialize(address,address,bytes)",
      "arguments": [
        "0xa4aF960CAFDe8BF5dc93Fc3b62175968C107892f",
        "0xb4EC41c93cF2f573f82D8F023B01637Eb5dB4c64",
        "0x0000000000000000000000004200000000000000000000000000000000000006000000000000000000000000c1cba3fcea344f92d9239c08c0568f6f2f0ee452000000000000000000000000627fe393bc6edda28e99ae648fd6ff362514304b000000000000000000000000cf77a3ba9a5ca399b7c97c74d54e5b1beb874e43000000000000000000000000420dd381b31aef6683db6b902084cb0ffece40da0000000000000000000000000000000000000000000000000044ec327ca48000000000000000000000000000000000000000000000000000003ff2e795f50000000000000000000000000000000000000000000000000000003ff2e795f50000000000000000000000000000000000000000000000000000000000000000012c"
      ],
      "transaction": {
        "from": "0xb4ec41c93cf2f573f82d8f023b01637eb5db4c64",
        "to": "0x0b98b26cdd390b1bf6a2e3855eb00f3f9a075e0f",
        "gas": "0x5c0de",
        "value": "0x0",
        "input": "0xcf7a1d77000000000000000000000000a4af960cafde8bf5dc93fc3b62175968c107892f000000000000000000000000b4ec41c93cf2f573f82d8f023b01637eb5db4c64000000000000000000000000000000000000000000000000000000000000006000000000000000000000000000000000000000000000000000000000000001200000000000000000000000004200000000000000000000000000000000000006000000000000000000000000c1cba3fcea344f92d9239c08c0568f6f2f0ee452000000000000000000000000627fe393bc6edda28e99ae648fd6ff362514304b000000000000000000000000cf77a3ba9a5ca399b7c97c74d54e5b1beb874e43000000000000000000000000420dd381b31aef6683db6b902084cb0ffece40da0000000000000000000000000000000000000000000000000044ec327ca48000000000000000000000000000000000000000000000000000003ff2e795f50000000000000000000000000000000000000000000000000000003ff2e795f50000000000000000000000000000000000000000000000000000000000000000012c",
        "nonce": "0x3c",
        "chainId": "0x2105"
      },
      "additionalContracts": [],
      "isFixedGasLimit": false
    }
  ],
  "receipts": [
    {
      "status": "0x1",
      "cumulativeGasUsed": "0x1ae3056",
      "logs": [],
      "logsBloom": "0x00000000000000000000000000000000000000000000000000000000000000000000000000000000000000000000000000000000000000000000000000000000000000000000000000000000000000000000000000000000000000000000000000000000000000000000000000000000000000000000000000000000000000000000000000000000000000000000000000000000000000000000000000000000000000000000000000000000000000000000000000000000000000000000000000000000000000000000000000000000000000000000000000000000000000000000000000000000000000000000000000000000000000000000000000000000",
      "type": "0x2",
      "transactionHash": "0x05eccd3aeb40f1ed232860a4c280229e82e1247eb1124790fbc13eb6884895ba",
      "transactionIndex": "0x7a",
      "blockHash": "0x0000000000000000000000000000000000000000000000000000000000000000",
      "blockNumber": "0x29ac1ae",
      "gasUsed": "0xf5c3",
      "effectiveGasPrice": "0x4c4b72",
      "blobGasUsed": "0x364c",
      "from": "0xb4ec41c93cf2f573f82d8f023b01637eb5db4c64",
      "to": null,
      "contractAddress": "0x0b98b26cdd390b1bf6a2e3855eb00f3f9a075e0f",
      "daFootprintGasScalar": "0x8b",
      "l1BaseFeeScalar": "0x8dd",
      "l1BlobBaseFee": "0x5e69c5",
      "l1BlobBaseFeeScalar": "0x101c12",
      "l1Fee": "0x4323a3d8",
      "l1GasPrice": "0x7c4b8e3",
      "l1GasUsed": "0x640"
    },
    {
      "status": "0x1",
      "cumulativeGasUsed": "0x1b25aab",
      "logs": [],
      "logsBloom": "0x00000000000000000000000000000000000000000000000000000000000000000000000000000000000000000000000000000000000000000000000000000000000000000000000000000000000000000000000000000000000000000000000000000000000000000000000000000000000000000000000000000000000000000000000000000000000000000000000000000000000000000000000000000000000000000000000000000000000000000000000000000000000000000000000000000000000000000000000000000000000000000000000000000000000000000000000000000000000000000000000000000000000000000000000000000000",
      "type": "0x2",
      "transactionHash": "0x7712dd0e27f2af1fefe3deb4e8b4660a18c32d947eb7c7f9ea874765a70d7cf1",
      "transactionIndex": "0x7b",
      "blockHash": "0x21d10b91abbf3b2ba8da3e639f58aa95d5abcad7a863df31bfdf604e23d1dcef",
      "blockNumber": "0x29ac1ae",
      "gasUsed": "0x42a55",
      "effectiveGasPrice": "0x4c4b72",
      "blobGasUsed": "0x813a",
      "from": "0xb4ec41c93cf2f573f82d8f023b01637eb5db4c64",
      "to": "0x0b98b26cdd390b1bf6a2e3855eb00f3f9a075e0f",
      "contractAddress": null,
      "daFootprintGasScalar": "0x8b",
      "l1BaseFeeScalar": "0x8dd",
      "l1BlobBaseFee": "0x5e69c5",
      "l1BlobBaseFeeScalar": "0x101c12",
      "l1Fee": "0xa01ccf15",
      "l1GasPrice": "0x7c4b8e3",
      "l1GasUsed": "0xee7"
    }
  ],
  "libraries": [],
  "pending": [],
  "returns": {},
  "timestamp": 1774182464702,
  "chain": 8453,
  "commit": "d6c5018"
}