{
  "transactions": [
    {
      "hash": "0xd4ade71b70e43501ea77d799f61c4d6c068bb602ee1419fe8437e0a082f83856",
      "transactionType": "CREATE",
      "contractName": null,
      "contractAddress": "0x3732686928acb9750dbe036379674887ebf34dd2",
      "function": null,
      "arguments": null,
      "transaction": {
        "from": "0xb4ec41c93cf2f573f82d8f023b01637eb5db4c64",
        "gas": "0x13f7d",
        "value": "0x0",
        "input": "0x3d602d80600a3d3981f3363d3d373d3d3d363d733b191991ca833b11343d7d62c14f40ae407e580d5af43d82803e903d91602b57fd5bf3",
        "nonce": "0x3f",
        "chainId": "0x2105"
      },
      "additionalContracts": [],
      "isFixedGasLimit": false
    },
    {
      "hash": "0x78f14d303276dbe3a4c60a34290e2fef41c68b5f8fac962ae45c34645f98704b",
      "transactionType": "CALL",
      "contractName": null,
      "contractAddress": "0x3732686928acb9750dbe036379674887ebf34dd2",
      "function": "initialize(address,address,bytes)",
      "arguments": [
        "0xa4aF960CAFDe8BF5dc93Fc3b62175968C107892f",
        "0xb4EC41c93cF2f573f82D8F023B01637Eb5dB4c64",
        "0x0000000000000000000000004200000000000000000000000000000000000006000000000000000000000000c1cba3fcea344f92d9239c08c0568f6f2f0ee452000000000000000000000000627fe393bc6edda28e99ae648fd6ff362514304b000000000000000000000000cf77a3ba9a5ca399b7c97c74d54e5b1beb874e43000000000000000000000000420dd381b31aef6683db6b902084cb0ffece40da0000000000000000000000000000000000000000000000000044ec327ca48000000000000000000000000000000000000000000000000000003ff2e795f50000000000000000000000000000000000000000000000000000003ff2e795f50000000000000000000000000000000000000000000000000000000000000000012c"
      ],
      "transaction": {
        "from": "0xb4ec41c93cf2f573f82d8f023b01637eb5db4c64",
        "to": "0x3732686928acb9750dbe036379674887ebf34dd2",
        "gas": "0x5c0de",
        "value": "0x0",
        "input": "0xcf7a1d77000000000000000000000000a4af960cafde8bf5dc93fc3b62175968c107892f000000000000000000000000b4ec41c93cf2f573f82d8f023b01637eb5db4c64000000000000000000000000000000000000000000000000000000000000006000000000000000000000000000000000000000000000000000000000000001200000000000000000000000004200000000000000000000000000000000000006000000000000000000000000c1cba3fcea344f92d9239c08c0568f6f2f0ee452000000000000000000000000627fe393bc6edda28e99ae648fd6ff362514304b000000000000000000000000cf77a3ba9a5ca399b7c97c74d54e5b1beb874e43000000000000000000000000420dd381b31aef6683db6b902084cb0ffece40da0000000000000000000000000000000000000000000000000044ec327ca48000000000000000000000000000000000000000000000000000003ff2e795f50000000000000000000000000000000000000000000000000000003ff2e795f50000000000000000000000000000000000000000000000000000000000000000012c",
        "nonce": "0x40",
        "chainId": "0x2105"
      },
      "additionalContracts": [],
      "isFixedGasLimit": false
    }
  ],
  "receipts": [
    {
      "status": "0x1",
      "cumulativeGasUsed": "0x47698a7",
      "logs": [],
      "logsBloom": "0x00000000000000000000000000000000000000000000000000000000000000000000000000000000000000000000000000000000000000000000000000000000000000000000000000000000000000000000000000000000000000000000000000000000000000000000000000000000000000000000000000000000000000000000000000000000000000000000000000000000000000000000000000000000000000000000000000000000000000000000000000000000000000000000000000000000000000000000000000000000000000000000000000000000000000000000000000000000000000000000000000000000000000000000000000000000",
      "type": "0x2",
      "transactionHash": "0xd4ade71b70e43501ea77d799f61c4d6c068bb602ee1419fe8437e0a082f83856",
      "transactionIndex": "0x5f7",
      "blockHash": "0x0000000000000000000000000000000000000000000000000000000000000000",
      "blockNumber": "0x29b001c",
      "gasUsed": "0xf5c3",
      "effectiveGasPrice": "0x2c4c944",
      "blobGasUsed": "0x364c",
      "from": "0xb4ec41c93cf2f573f82d8f023b01637eb5db4c64",
      "to": null,
      "contractAddress": "0x3732686928acb9750dbe036379674887ebf34dd2",
      "daFootprintGasScalar": "0x8b",
      "l1BaseFeeScalar": "0x8dd",
      "l1BlobBaseFee": "0x3e1b2b",
      "l1BlobBaseFeeScalar": "0x101c12",
      "l1Fee": "0x28fdd08e",
      "l1GasPrice": "0x43c6c0f",
      "l1GasUsed": "0x640"
    },
    {
      "status": "0x1",
      "cumulativeGasUsed": "0x4803392",
      "logs": [],
      "logsBloom": "0x00000000000000000000000000000000000000000000000000000000000000000000000000000000000000000000000000000000000000000000000000000000000000000000000000000000000000000000000000000000000000000000000000000000000000000000000000000000000000000000000000000000000000000000000000000000000000000000000000000000000000000000000000000000000000000000000000000000000000000000000000000000000000000000000000000000000000000000000000000000000000000000000000000000000000000000000000000000000000000000000000000000000000000000000000000000",
      "type": "0x2",
      "transactionHash": "0x78f14d303276dbe3a4c60a34290e2fef41c68b5f8fac962ae45c34645f98704b",
      "transactionIndex": "0x5ff",
      "blockHash": "0x0000000000000000000000000000000000000000000000000000000000000000",
      "blockNumber": "0x29b001c",
      "gasUsed": "0x42a55",
      "effectiveGasPrice": "0x2c4c944",
      "blobGasUsed": "0x82db",
      "from": "0xb4ec41c93cf2f573f82d8f023b01637eb5db4c64",
      "to": "0x3732686928acb9750dbe036379674887ebf34dd2",
      "contractAddress": null,
      "daFootprintGasScalar": "0x8b",
      "l1BaseFeeScalar": "0x8dd",
      "l1BlobBaseFee": "0x3e1b2b",
      "l1BlobBaseFeeScalar": "0x101c12",
      "l1Fee": "0x28fdd08e",
      "l1GasPrice": "0x43c6c0f",
      "l1GasUsed": "0xf1d"
    }
  ],
  "libraries": [],
  "pending": [],
  "returns": {},
  "timestamp": 1774214426707,
  "chain": 8453,
  "commit": "3e1e5fc"
}