{
  "transactions": [
    {
      "hash": "0xc848ac36835a99d5bfe9164d72c5399f8080992759af5341fcc4483d085709f7",
      "transactionType": "CREATE",
      "contractName": null,
      "contractAddress": "0x0550253afb7b8726906f4769007b65d54f28d1cd",
      "function": null,
      "arguments": null,
      "transaction": {
        "from": "0xb4ec41c93cf2f573f82d8f023b01637eb5db4c64",
        "gas": "0x13f7d",
        "value": "0x0",
        "input": "0x3d602d80600a3d3981f3363d3d373d3d3d363d736d026e2f5ff0c34a01690ec46cb601b8ff3919855af43d82803e903d91602b57fd5bf3",
        "nonce": "0x44",
        "chainId": "0x2105"
      },
      "additionalContracts": [],
      "isFixedGasLimit": false
    },
    {
      "hash": "0x0eb1090dcbc81a661bfeca7da53f1768940b8c015879ba2eca232822905f46a8",
      "transactionType": "CALL",
      "contractName": null,
      "contractAddress": "0x0550253afb7b8726906f4769007b65d54f28d1cd",
      "function": "initialize(address,address,bytes)",
      "arguments": [
        "0xa4aF960CAFDe8BF5dc93Fc3b62175968C107892f",
        "0xb4EC41c93cF2f573f82D8F023B01637Eb5dB4c64",
        "0x0000000000000000000000004200000000000000000000000000000000000006000000000000000000000000c1cba3fcea344f92d9239c08c0568f6f2f0ee452000000000000000000000000627fe393bc6edda28e99ae648fd6ff362514304b000000000000000000000000cf77a3ba9a5ca399b7c97c74d54e5b1beb874e43000000000000000000000000420dd381b31aef6683db6b902084cb0ffece40da0000000000000000000000000000000000000000000000000044ec327ca48000000000000000000000000000000000000000000000000000003ff2e795f50000000000000000000000000000000000000000000000000000003ff2e795f50000000000000000000000000000000000000000000000000000000000000000012c"
      ],
      "transaction": {
        "from": "0xb4ec41c93cf2f573f82d8f023b01637eb5db4c64",
        "to": "0x0550253afb7b8726906f4769007b65d54f28d1cd",
        "gas": "0x5c0de",
        "value": "0x0",
        "input": "0xcf7a1d77000000000000000000000000a4af960cafde8bf5dc93fc3b62175968c107892f000000000000000000000000b4ec41c93cf2f573f82d8f023b01637eb5db4c64000000000000000000000000000000000000000000000000000000000000006000000000000000000000000000000000000000000000000000000000000001200000000000000000000000004200000000000000000000000000000000000006000000000000000000000000c1cba3fcea344f92d9239c08c0568f6f2f0ee452000000000000000000000000627fe393bc6edda28e99ae648fd6ff362514304b000000000000000000000000cf77a3ba9a5ca399b7c97c74d54e5b1beb874e43000000000000000000000000420dd381b31aef6683db6b902084cb0ffece40da0000000000000000000000000000000000000000000000000044ec327ca48000000000000000000000000000000000000000000000000000003ff2e795f50000000000000000000000000000000000000000000000000000003ff2e795f50000000000000000000000000000000000000000000000000000000000000000012c",
        "nonce": "0x45",
        "chainId": "0x2105"
      },
      "additionalContracts": [],
      "isFixedGasLimit": false
    }
  ],
  "receipts": [
    {
      "status": "0x1",
      "cumulativeGasUsed": "0x101c4e5",
      "logs": [],
      "logsBloom": "0x00000000000000000000000000000000000000000000000000000000000000000000000000000000000000000000000000000000000000000000000000000000000000000000000000000000000000000000000000000000000000000000000000000000000000000000000000000000000000000000000000000000000000000000000000000000000000000000000000000000000000000000000000000000000000000000000000000000000000000000000000000000000000000000000000000000000000000000000000000000000000000000000000000000000000000000000000000000000000000000000000000000000000000000000000000000",
      "type": "0x2",
      "transactionHash": "0x0eb1090dcbc81a661bfeca7da53f1768940b8c015879ba2eca232822905f46a8",
      "transactionIndex": "0x5f",
      "blockHash": "0x0000000000000000000000000000000000000000000000000000000000000000",
      "blockNumber": "0x29b025c",
      "gasUsed": "0xf5c3",
      "effectiveGasPrice": "0xbe00fb",
      "blobGasUsed": "0x364c",
      "from": "0xb4ec41c93cf2f573f82d8f023b01637eb5db4c64",
      "to": null,
      "contractAddress": "0x0550253afb7b8726906f4769007b65d54f28d1cd",
      "daFootprintGasScalar": "0x8b",
      "l1BaseFeeScalar": "0x8dd",
      "l1BlobBaseFee": "0x35adbf",
      "l1BlobBaseFeeScalar": "0x101c12",
      "l1Fee": "0x25a2b807",
      "l1GasPrice": "0x444dcab",
      "l1GasUsed": "0x640"
    },
    {
      "status": "0x1",
      "cumulativeGasUsed": "0x105ef3a",
      "logs": [],
      "logsBloom": "0x00000000000000000000000000000000000000000000000000000000000000000000000000000000000000000000000000000000000000000000000000000000000000000000000000000000000000000000000000000000000000000000000000000000000000000000000000000000000000000000000000000000000000000000000000000000000000000000000000000000000000000000000000000000000000000000000000000000000000000000000000000000000000000000000000000000000000000000000000000000000000000000000000000000000000000000000000000000000000000000000000000000000000000000000000000000",
      "type": "0x2",
      "transactionHash": "0xc848ac36835a99d5bfe9164d72c5399f8080992759af5341fcc4483d085709f7",
      "transactionIndex": "0x60",
      "blockHash": "0x0000000000000000000000000000000000000000000000000000000000000000",
      "blockNumber": "0x29b025c",
      "gasUsed": "0x42a55",
      "effectiveGasPrice": "0xbe00fb",
      "blobGasUsed": "0x81c5",
      "from": "0xb4ec41c93cf2f573f82d8f023b01637eb5db4c64",
      "to": "0x0550253afb7b8726906f4769007b65d54f28d1cd",
      "contractAddress": null,
      "daFootprintGasScalar": "0x8b",
      "l1BaseFeeScalar": "0x8dd",
      "l1BlobBaseFee": "0x35adbf",
      "l1BlobBaseFeeScalar": "0x101c12",
      "l1Fee": "0x25a2b807",
      "l1GasPrice": "0x444dcab",
      "l1GasUsed": "0xef5"
    }
  ],
  "libraries": [],
  "pending": [],
  "returns": {},
  "timestamp": 1774215577908,
  "chain": 8453,
  "commit": "3e1e5fc"
}